:020000040800F2
:10000000008001204D2B01089D2B01088D3A00082E
:100010009D2B01089D2B01089D2B0108000000006D
:1000200000000000000000000000000071E900086E
:100030009D2B010800000000C1EB000829EC00081E
:100040009D2B01089D2B01089D2B01089D2B01086C
:100050009D2B01089D2B01089D2B01089D2B01085C
:100060009D2B01089D2B01089D2B01089D2B01084C
:10007000F16D00089D2B01089D2B01089D2B0108A7
:10008000AD3900089D2B0108E93800089D2B0108B7
:100090009D2B01089D2B01089D2B01089D2B01081C
:1000A000293900080D3900089D2B01089D2B0108F6
:1000B0009D2B010871390008056E00089D2B010871
:1000C0009D2B01089D2B01089D2B01089D2B0108EC
:1000D0009D2B01089D2B0108D93900089D2B010893
:1000E000973A00089D2B01089D2B01089D2B0108C4
:1000F0009D2B01089D2B01089D2B01089D2B0108BC
:100100009D2B01089D2B01089D2B01089D2B0108AB
:100110009D2B01089D2B0108196E00089D2B0108DD
:100120009D2B01089D2B01089D2B01089D2B01088B
:100130009D2B01089D2B01089D2B01089D2B01087B
:100140009D2B01089D2B01089D2B01089D2B01086B
:100150009D2B01089D2B01089D2B01089D2B01085B
:100160009D2B01089D2B01089D2B01089D2B01084B
:100170009D2B01089D2B01089D2B0108000000000C
:080180009D2B01089D2B0108D5
:1001900010B5054C237833B9044B13B10448AFF3C1
:1001A00000800123237010BDF00400200000000037
:1001B000142C010808B5034B1BB103490348AFF3E6
:1001C000008008BD00000000F4040020142C010889
:1001D00053B94AB9002908BF00281CBF4FF0FF31AE
:1001E0004FF0FF3000F074B9ADF1080C6DE904CEAA
:1001F00000F006F8DDF804E0DDE9022304B0704702
:100200002DE9F047089D04468E46002B4DD18A42C9
:10021000944669D9B2FA82F252B101FA02F3C2F1FC
:10022000200120FA01F10CFA02FC41EA030E94408D
:100230004FEA1C48210CBEFBF8F61FFA8CF708FBAE
:1002400016E341EA034306FB07F199420AD91CEB86
:10025000030306F1FF3080F01F81994240F21C81B8
:10026000023E63445B1AA4B2B3FBF8F008FB103300
:1002700044EA034400FB07F7A7420AD91CEB040435
:1002800000F1FF3380F00A81A74240F20781644405
:10029000023840EA0640E41B00261DB1D44000238A
:1002A000C5E900433146BDE8F0878B4209D9002DEE
:1002B00000F0EF800026C5E9000130463146BDE878
:1002C000F087B3FA83F6002E4AD18B4202D38242E2
:1002D00000F2F980841A61EB030301209E46002D91
:1002E000E0D0C5E9004EDDE702B9FFDEB2FA82F2E6
:1002F000002A40F09280A1EB0C014FEA1C471FFA44
:100300008CFE0126200CB1FBF7F307FB131140EA2A
:1003100001410EFB03F0884208D91CEB010103F1F7
:10032000FF3802D2884200F2CB804346091AA4B2B9
:10033000B1FBF7F007FB101144EA01440EFB00FE8D
:10034000A64508D91CEB040400F1FF3102D2A645F2
:1003500000F2BB800846A4EB0E0440EA03409CE791
:10036000C6F12007B34022FA07FC4CEA030C20FA3E
:1003700007F401FA06F31C43F9404FEA1C4900FA5E
:1003800006F3B1FBF9F8200C1FFA8CFE09FB1811DB
:1003900040EA014108FB0EF0884202FA06F20BD94E
:1003A0001CEB010108F1FF3A80F08880884240F29E
:1003B0008580A8F102086144091AA4B2B1FBF9F0E2
:1003C00009FB101144EA014100FB0EFE8E4508D9DD
:1003D0001CEB010100F1FF346CD28E456AD9023862
:1003E000614440EA0840A0FB0294A1EB0E01A14247
:1003F000C846A64656D353D05DB1B3EB080261EBB5
:100400000E0101FA07F722FA06F3F1401F43C5E98E
:10041000007100263146BDE8F087C2F12003D840C4
:100420000CFA02FC21FA03F3914001434FEA1C4706
:100430001FFA8CFEB3FBF7F007FB10360B0C43EAF8
:10044000064300FB0EF69E4204FA02F408D91CEBA8
:10045000030300F1FF382FD29E422DD902386344A6
:100460009B1B89B2B3FBF7F607FB163341EA034146
:1004700006FB0EF38B4208D91CEB010106F1FF3895
:1004800016D28B4214D9023E6144C91A46EA00468C
:1004900038E72E46284605E70646E3E61846F8E61E
:1004A0004B45A9D2B9EB020864EB0C0E0138A3E767
:1004B0004646EAE7204694E74046D1E7D0467BE748
:1004C000023B614432E7304609E76444023842E7C0
:1004D000704700BFB0B58EB000AF09F099F800F0DA
:1004E00045F800F093FC00F037FC00F0CDF800F088
:1004F00045FA00F037FB00F0FFFB00F023FD00F0B1
:10050000B3F900F085FB00F09FF900F080F8134B81
:1005100007F11C041D460FCD0FC495E8070084E8C1
:10052000070007F11C03002118460DF086FF034663
:100530000B4A13600B4B3C461D460FCD0FC495E88C
:10054000070084E807003B46002118460DF075FFC0
:100550000346054A13600DF069FFFEE7482C0108C9
:1005600018080020642C01081C08002080B596B0F3
:1005700000AF07F1140344220021184612F042FB99
:100580003B4600221A605A609A60DA601A614FF4A2
:1005900000700AF027FF0346002B01D000F0B2FCE8
:1005A00002237B614FF480733B6210237B62022342
:1005B000FB6302233B6402237B641423BB64072395
:1005C000FB6402233B6502237B6507F11403184695
:1005D00009F05EF80346002B01D000F093FC0F23D6
:1005E0003B6003237B600023BB600023FB60002390
:1005F0003B613B460421184609F026FC0346002BCC
:1006000001D000F07FFC00BF5837BD4680BD80B5EB
:1006100000AF0022032126200BF015F826200BF056
:100620002EF80022032110200BF00DF810200BF003
:1006300026F80022042118200BF005F818200BF0F2
:100640001EF80022002119200AF0FDFF19200BF0EE
:1006500016F80022022112200AF0F5FF12200BF0FA
:100660000EF8002203211D200AF0EDFF1D200BF0E3
:1006700006F80022032128200AF0E5FF28200AF0CE
:10068000FEFF00BF80BD000080B596B000AF07F14F
:100690004C0300221A605A609A6007F11803342252
:1006A0000021184612F0AEFA3B4600221A605A604A
:1006B0009A60DA601A615A615C4B5D4A1A605B4B62
:1006C00000225A60594B00229A60584B2022DA606F
:1006D000564B01221A61554B04225A61534B00229A
:1006E0001A76524B00225A76504B0222DA614F4B57
:1006F000002283F820204D4B00229A624B4B0022AF
:10070000DA624A4B002283F83020484B00225A63B9
:10071000464B002283F83820444807F0CFF80346C0
:10072000002B01D000F0EEFB0023FB6407F14C032B
:1007300019463E4808F094FE0346002B01D000F015
:10074000E1FB3A4808F03CFF3A4BBB610823FB61F0
:1007500002233B627F237B620423BB620023FB6294
:1007600003233B63002387F83430002387F83530B8
:10077000002387F836304023BB634023FB6300230C
:1007800087F8403007F118031946284808F0B8F9EF
:100790000346002B01D000F0B5FB274BBB614FF4A3
:1007A0008773FB6107F118031946204808F0A8F980
:1007B0000346002B01D000F0A5FB204BBB614FF49A
:1007C0000573FB6107F118031946184808F098F9FA
:1007D0000346002B01D000F095FB194B3B6006232C
:1007E0007B600523BB607F23FB6004233B61002308
:1007F0007B613B4619460D4807F076FA0346002B0D
:1008000001D000F07FFB0F4B3B600C237B603B462D
:100810001946064807F068FA0346002B01D000F09D
:1008200071FB00BF5837BD4680BD00BF0C050020DE
:100830000000045040002019000021430080F03ED9
:100840002000F0140020903680B500AF7F210548CD
:1008500008F0F6F80346002B01D000F053FB00BF70
:1008600080BD00BF7005002080B586B000AF3B465C
:1008700000221A605A609A60DA601A615A613B4B32
:100880003B4A1A60394B00225A60384B00229A606A
:10089000364B0022DA60354B01221A61334B0822B5
:1008A0005A61324B00221A76304B00225A762F4B77
:1008B0000322DA612D4B002283F820202B4B4FF4CA
:1008C000E0629A62294B4FF48062DA62274B012280
:1008D00083F83020254B00225A63244B002283F8F2
:1008E0003820224806F0EAFF0346002B01D000F032
:1008F00009FB204B3B6006237B600023BB607F230A
:10090000FB6004233B6100237B613B46194617488B
:1009100007F0EAF90346002B01D000F0F3FA0C23AC
:100920007B603B461946114807F0DEF90346002B71
:1009300001D000F0E7FA12237B603B4619460B48D2
:1009400007F0D2F90346002B01D000F0DBFA0622B3
:100950000949064807F002F90346002B01D000F0D0
:10096000D1FA00BF1837BD4680BD00BF700500201A
:1009700000010450020030044003002080B59EB006
:1009800000AF07F1640300221A605A609A60DA60CF
:100990001A6107F1580300221A605A609A6007F141
:1009A0004C0300221A605A609A6007F1300300225B
:1009B0001A605A609A60DA601A615A619A613B1D46
:1009C0002C220021184612F01DF9644B644A1A606B
:1009D000624B00225A60614B20229A605F4B40F6C6
:1009E000C412DA605D4B4FF480721A615B4B0122D6
:1009F0005A615A4B00229A6158480AF05AFE03463F
:100A0000002B01D000F07EFA54480AF019FF03468B
:100A1000002B01D000F076FA06237B661023BB661C
:100A200007F1640319464D480BF0F1FA0346002B19
:100A300001D000F067FA7023BB650023FB6500233B
:100A40003B6607F15803194644480BF0E9FF03469B
:100A5000002B01D000F056FA0123FB6401233B6513
:100A600001237B6507F14C031A4602213B480CF039
:100A7000DDF80346002B01D000F044FA60233B630D
:100A800040F2E2437B630023BB630023FB6300234C
:100A90003B6400237B640023BB6407F13003002226
:100AA00019462E480BF0D6F80346002B01D000F073
:100AB00029FA07F130030422194628480BF0CAF836
:100AC0000346002B01D000F01DFA07F13003082285
:100AD000194622480BF0BEF80346002B01D000F067
:100AE00011FA70233B6340F6C3137B6307F13003B5
:100AF0000C22194619480BF0ADF80346002B01D023
:100B000000F000FA4FF400637B604FF48063BB6039
:100B10000023FB6000233B6100237B614FF4005303
:100B2000BB610023FB614FF080733B624FF00073A9
:100B30007B620323BB620023FB623B1D194607480F
:100B40000BF0F6FF0346002B01D000F0DBF9034861
:100B500006F04EFB00BF7837BD4680BD1C06002066
:100B6000002C014080B58CB000AF07F10C032422AB
:100B70000021184612F046F83B4600221A605A60DF
:100B80009A60214B214A1A601F4B00225A601E4B6B
:100B900000229A601C4B40F23F62DA601A4B00223E
:100BA0001A61194B00229A610323FB6000233B6109
:100BB00001237B610023BB610923FB6100233B62AE
:100BC00001237B620023BB620923FB6207F10C0354
:100BD00019460D480AF095FE0346002B01D000F09F
:100BE00091F900233B600023BB603B461946064851
:100BF0000BF016FF0346002B01D000F083F900BF75
:100C00003037BD4680BD00BF6806002000040040AC
:100C100080B58EB000AF07F1280300221A605A6039
:100C20009A60DA6007F11C0300221A605A609A6029
:100C30003B4600221A605A609A60DA601A615A6173
:100C40009A612B4B2B4A1A60294B4F225A60284B32
:100C500000229A60264B40F2E732DA60244B0022F1
:100C60001A61234B00229A6121480AF022FD0346B3
:100C7000002B01D000F046F94FF48053BB6207F11E
:100C8000280319461A480BF0F9F80346002B01D047
:100C900000F038F916480AF0D3FD0346002B01D0C6
:100CA00000F030F92023FB6100237B6207F11C0375
:100CB00019460F480BF0B4FE0346002B01D000F09C
:100CC00021F960233B6000237B600023BB6000238D
:100CD0003B613B460022194605480AF0BBFF03462C
:100CE000002B01D000F00EF900BF3837BD4680BDA3
:100CF000B40600200008004080B500AF144B154A30
:100D00001A60134B4FF4E1125A60114B00229A60A3
:100D10000F4B0022DA600E4B00221A610C4B0C22A2
:100D20005A610B4B00229A61094B0022DA61084B91
:100D300000221A62064B00225A6205480CF05AF84B
:100D40000346002B01D000F0DDF800BF80BD00BFDE
:100D5000000700200044004080B582B000AF0C4B7B
:100D60009B6C0B4A43F001039364094B9B6C03F0AB
:100D700001037B607B68002205210C200AF063FCE4
:100D80000C200AF07CFC00BF0837BD4680BD00BFC8
:100D90000010024080B487B000AF786007F10C0308
:100DA00000221A605A609A607B681B68104A93425E
:100DB00017D1104BD3F88030FB600E4BD3F8843042
:100DC0003B610C4BD3F888307B610A4BD3F88C30F5
:100DD000BB61084BD3F89030FB61064BD3F89430DD
:100DE0003B6200BF1C37BD465DF8047B704700BF07
:100DF00000010450C002002080B483B000AF7860CE
:100E000000BF0C37BD465DF8047B704780B588B0E5
:100E100000AF07F10C0300221A605A609A60DA6092
:100E20001A612B4BDB6C2A4A43F00403D364284B32
:100E3000DB6C03F00403BB60BB68254BDB6C244A0E
:100E400043F00103D364224BDB6C03F001037B60AE
:100E50007B681F4BDB6C1E4A43F00203D3641C4BC0
:100E6000DB6C03F002033B603B6800224FF46041FF
:100E700018480AF0A5F84FF40053FB604FF4041330
:100E80003B6100237B6107F10C031946124809F00E
:100E9000EDFE0423FB600B233B6100237B6107F124
:100EA0000C0319460C4809F0E1FE4FF46043FB6067
:100EB00001233B6102237B610223BB6107F10C0329
:100EC0001946044809F0D2FE00BF2037BD4680BD58
:100ED00000100240000400480008004880B584B0BB
:100EE00000AF78600023FB607B681B68044A934274
:100EF00001D108F0ADFB00BF1037BD4680BD00BF7B
:100F00000010004080B400AF72B600BFFEE70000E2
:100F100080B485B000AFF860B9607A60FB68074ABA
:100F20001A60BB68064A1A607B6880221A6000BF9C
:100F30001437BD465DF8047B704700BF20080020D1
:100F40007408002080B500AF034800F067F800F097
:100F5000BDFE00BF80BD00BF740A002080B500AF99
:100F600009F0FEF80346044AA2FB0323DB091846F6
:100F70000AF093FB00BF80BDD34D621080B500AF77
:100F8000034B1B68184601F095FF0346184680BDC9
:100F9000740A002080B500AF034B1B68184601F0AF
:100FA000DCFF0346184680BD740A002080B500AF00
:100FB000034B1B68184602F0AAF80346184680BD8A
:100FC000740A002080B485B000AFB9607B6003462E
:100FD000FB811346BB81022318461437BD465DF8DA
:100FE000047B704780B485B000AF786039603B689F
:100FF00043F480327B68DA617B683A68DA613B6887
:1010000043F480327B68DA617B68DB69FB60FB68F4
:1010100000BF1437BD465DF8047B704790B587B0BC
:1010200002AF78607B68002B00F098804D4B002267
:101030001A704D4B4D4A1A604C4810F0D3FA4C4888
:1010400005F058FA0FF0C8FA4A480EF0CCFF4A48AB
:101050000EF020F849480EF0E7FA494B1968464B64
:10106000484A49480DF094FE484B474A1A604848A0
:101070000EF0B9FF404B474A454947480EF027FB61
:101080003F4B1B683C4A3B4918460FF0C6FC3D48A5
:101090000FF085FE41480EF0A6FF41480EF0A3FF79
:1010A000404801F0FBFA40480FF0FAFA3F4B1B684A
:1010B0003D4ADA603D4B1B683D4A9A603D4801F06D
:1010C000EDFA3D480EF000FF3C4B3D4A1A603B4BA9
:1010D0001B6818460FF0CBFB002000F021FB344BBF
:1010E000012283F82420264B1B68314C18460FF050
:1010F0002AFE03462361224B1B6818460FF023FE8D
:101100000346FB60B7F90E20294B9A821C4B1968E5
:101110002C4B1A68144B1B6800931346244A2A4828
:1011200001F0EBFD284B294A1A62154B1B68184643
:101130000FF0FCFD034600221946234801F014FE7F
:10114000214B234ADA60224804F08AFC7B681E4A5D
:101150001A6005F03EFE034B01221A7000BF1437DF
:10116000BD4690BD7A1C00206C1C0020640100204C
:10117000100400201000002040020020C0020020C7
:10118000E80300200802002058030020681C00200B
:101190009400002030010020C00000203C0000200E
:1011A00068000020A0030020B0030020F40300200A
:1011B000401C00207403002084030020701C0020C9
:1011C000CC030020F8030020840A0020C004002083
:1011D0007C1C002080B500AF044B1B78DBB2002BD9
:1011E00001D000F02BF800BF80BD00BF7A1C0020AA
:1011F00080B582B000AF0346FB71FB79184600F062
:101200008FFAFB790B4A52F8233018460FF023F976
:101210004FF4487000F090FBFA79074913465B00E1
:1012200013441B010B44273308221A7000BF0837F0
:10123000BD4680BDF4030020840A002098B500AFAD
:101240002D4B1B78DBB2012B54D12C4B1B88002B70
:1012500006D02A4B1B88013B9AB2284B1A8031E0FA
:1012600000F058F805F0BCFD254B1B689B68244A2C
:1012700012682449104698470346214A5360204B80
:101280005B68002B1BD01E4B1B681B681C4A106838
:101290000A221D499847034683F00103DBB2002B65
:1012A0000DD1174804F008FA154B1B685C68144B05
:1012B0001868134B9968124BDA890A23A0470F4B21
:1012C00001221A80114B1B889BB2002B06D00F4BBA
:1012D0001B889BB2013B9AB20C4B1A800C4B1B88AB
:1012E0009BB2002B06D00A4B1B889BB2013B9AB2E3
:1012F000074B1A8000BF98BD7A1C0020741C002088
:1013000084040020900400208C040020761C00201F
:10131000781C002080B582B000AF0121B94804F0EC
:1013200025FC0023BB803B1D1946B7480DF05DFF2F
:10133000B64B1B6818460FF04CF8B54801F010FF8B
:101340000346002B40F0C681B14801F0FDFE034684
:10135000002B40F0BA81AE4B93F82730142B00F2EB
:10136000BE8101A252F823F0BD130008DF16000869
:1013700043150008DF160008DF160008DF16000816
:10138000D9150008DF1600082D160008DF16000822
:101390006516000849160008DF160008DF16000869
:1013A000DF160008DF1600089B1400082D14000843
:1013B000DF160008DF1600086F160008944B93F83C
:1013C0002630012B05D0924B93F82630032B40F0AA
:1013D0008881904B1B6893F8813083F00103DBB266
:1013E000002B0AD08B4B1B680021184600F097FF9A
:1013F000874B112283F8272073E1864B1B6801225B
:10140000A3F86020834B1B680121184600F087FF7A
:10141000804B1B680021184610F006FC142000F0D9
:1014200065FA7B4B102283F827205AE1784B93F81A
:101430002630052B03D10020FFF7DAFE53E1754B70
:101440001B680121184600F06AFF0346002B00F0DC
:101450004A816F4B93F82630032B10D1002000F007
:101460005FF96A4B1B6818460EF0F5FF684B0022C7
:1014700083F82620664B002283F8272033E1654B52
:101480001B680021184610F0CFFB142000F02EFA44
:101490005F4B102283F8272025E15D4B93F826301F
:1014A000052B03D10020FFF7A3FE1EE100F02EFA6A
:1014B0000346002B00F01981574B012283F82420AA
:1014C000564B1B68564918460FF0D3FA4E480DF09C
:1014D00034FE002000F024F952480DF0EFFC0346E2
:1014E00083F00103DBB2002B07D04E480DF06CFCFB
:1014F000474B022283F827201DE0484B1B6803213D
:1015000018460FF0FEFA454B1B683F4918460FF08E
:10151000B0FA002000F0A2F9002000F0ABF93F4B38
:101520001B6818460FF02AFC394801F08AFD384B39
:10153000062283F82720374B1B68184600F0E3FE8D
:10154000D3E0334B93F82630052B03D10020FFF76F
:101550004FFED1E033480DF0B1FC0346FB7131483A
:101560000DF07CFC0346BB71FB7983F00103DBB219
:10157000002B13D0BB7983F00103DBB2002B0DD01D
:1015800000233B80254B1B6818460FF073FB034676
:101590007B80214A3B68136100BFADE01F4B1B6895
:1015A000032118460FF0ADFA1C4B1B68164918466C
:1015B0000FF05FFA002000F0B3F8164B1B68002113
:1015C000184610F031FB4FF4487000F0B5F9104B9D
:1015D000142283F827208FE00D4B93F82630052B3B
:1015E00003D10020FFF704FE86E00F4B1B6818466E
:1015F0000EF032FA064801F024FD002000F03AF91E
:101600007AE000BF7C1C002040020020F403002090
:10161000840A00206C1C0020401C0020E8030020ED
:101620000802002058030020F803002000F094F97D
:101630000346002B5BD0344B002283F82620324B2C
:10164000002283F8272052E02F4B93F82630022BFC
:101650004FD12D4B002283F826202B4B002283F8FC
:10166000272046E0284B0B2283F8272044E0264B16
:1016700093F82630052B03D10020FFF7B9FD3AE09F
:1016800000F06AF90346002B35D020480DF055FDD7
:101690001F4B1B68184610F018FB1E4B1B681846A2
:1016A0000EF02CFB002000F0D9F81B4B1B681846ED
:1016B0000FF064FB144801F0C4FC002000F0DAF8DD
:1016C000114B062283F8272015E00F4B0B2283F8DD
:1016D000272011E00C4B0A2283F827200CE000BFE2
:1016E0000AE000BF08E000BF06E000BF04E000BF62
:1016F00002E000BF00E000BF0121084804F09EFAAC
:1017000000BF0837BD4680BD840A0020400200208B
:101710006C1C0020F8030020E80300207C1C002043
:1017200080B586B000AF0346FB710023BB82002367
:10173000FB8200233B8200237B820023BB810023AA
:10174000FB81FB793F4A262101FB03F313441A4630
:1017500007F1140318681060FB793A4A262101FB4F
:1017600003F3134404331A4607F10C03186810609E
:10177000FB79344A262101FB03F313440C331A4648
:1017800007F1100318681060FB792E4A262101FB2F
:1017900003F3134410331A4607F11003186810605E
:1017A000FB79284A262101FB03F313441E33002250
:1017B0001A80FB79234A262101FB03F313441033DB
:1017C000063307F1100210681860FB791D4A2621C4
:1017D00001FB03F313441833023307F10C021068C2
:1017E0001860FB79174A262101FB03F313442033C9
:1017F00000221A80FB79144A52F82330002118463F
:101800000EF048FCFB79114A52F8233000211846AB
:101810000EF040FCFB790E4A52F8233018460FF0C8
:1018200042F9FB790B4A52F82330184600F05FFD6D
:10183000FB791946084804F057F900BF1837BD4630
:1018400080BD00BF401C0020EC030020F0030020FE
:10185000E80300206C1C00207C1C002080B483B0B6
:1018600000AF0346FB7100BF0C37BD465DF8047B3B
:101870007047000090B583B000AF0346FB71FB7961
:10188000184A262101FB03F3134424331B78002B51
:1018900023D1FB79144A52F82330FC7918460FF013
:1018A000E9F9034619460F4A262304FB03F31344C0
:1018B0001E330A461A80FA79FB790A49262000FB72
:1018C00002F20A441E32B2F90000064A262101FB48
:1018D00003F31344103302461A8000BF0C37BD4691
:1018E00090BD00BF401C0020E803002080B483B0FE
:1018F00000AF0346FB80044AFB88138000BF0C370F
:10190000BD465DF8047B7047761C002080B483B030
:1019100000AF0023FB71074B1B889BB2002B01D14A
:101920000123FB71FB7918460C37BD465DF8047B3B
:10193000704700BF761C002080B483B000AF034620
:10194000FB80044AFB88138000BF0C37BD465DF85E
:10195000047B7047781C002080B483B000AF002364
:10196000FB71074B1B889BB2002B01D10123FB713C
:10197000FB7918460C37BD465DF8047B704700BF05
:10198000781C002080B582B000AF0023FB710021DD
:10199000134804F0D3F813480DF0EFFB00F02AF8D9
:1019A0000346BB80BB88012B04D1002201210E48D5
:1019B00001F023FB0D4B1B6801330C4A13600C4BE9
:1019C00093F82930002B02D0094810F033FE002193
:1019D000034804F0E9F8FB7918460837BD4680BD96
:1019E0007C1C002040020020840A0020402A0020A5
:1019F0009404002080B588B000AF3C4B1B681846AB
:101A00000FF045F8F861F8690EF04AFF03467B8352
:101A1000374B1B6807F10C021146184600F0B2F96B
:101A2000F86800F0A3FF0346BB60B7F91A30194607
:101A3000B86800F0E5FF03467B612E4B1B682E4A19
:101A4000B2F910201146B7F914208A1A1146184627
:101A50000EF0DCFB03463B82284B1B68264AB2F99A
:101A600012201146B7F916208A1A114618460EF0B0
:101A7000CDFB03467B82396921480DF01AF90346F4
:101A80003B61F8690EF032FF00239AB27B8B13445E
:101A90009BB27B83B7F91A301946386901F028F8F0
:101AA00003467B60124B1B687968184600F078F992
:101AB00003463B83104B163307F110021068186081
:101AC0000D4AFB6813600C4ABB6853600A4A7B6985
:101AD000D360094B1A333A1D10681860064A7B8B95
:101AE00013843B8B18462037BD4680BDE803002099
:101AF0006C1C0020EC030020401C0020F0030020A0
:101B0000E403002080B500AF054B1B78DBB2012B4E
:101B100004D1002000F006F800F0E8FE00BF80BD10
:101B20007A1C002090B585B000AF0346FB710023FE
:101B3000FB810E233B81FB79002B18D1434800F039
:101B400055FE0346BB81FB795B0010333B4433F801
:101B5000084CBB8919463E480EF0DAF9034623408B
:101B60009BB21AB2B7F90E3013431BB2FB81FB795B
:101B7000384A52F82330184600F05EFC03461A46F5
:101B8000FB891343FB81FB79002B18D1324800F00D
:101B90002DFE03467B81FB795B0010333B4433F819
:101BA000084C7B8919462D480EF0B2FD03462340B0
:101BB0009BB21AB2B7F90E3013431BB2FB81FA790C
:101BC00013465B0013441B01254A9818FB89DB432D
:101BD0009AB2FB89194601F010FAFA7913465B00B4
:101BE00013441B011E4A1344184601F0C5FA03466C
:101BF000002B27D0FB791B4A52F82330002B07D04B
:101C0000FB79184A52F82330002118460DF062F98A
:101C1000FB79104A52F82330184600F068FB124B4B
:101C200093F82930002B02D00F4810F055FEFB79B5
:101C30001846FFF775FDFB790C4A52F82330184619
:101C40000EF009FC00BF1437BD4690BD74030020A0
:101C5000840300206C1C0020A0030020B00300209F
:101C6000840A0020681C002094040020F403002053
:101C700080B500AF00228021024801F0BEF900BF0C
:101C800080BD00BF840A002080B582B000AF7860BC
:101C900001200CF025F8FFF79DFAF9E780B582B036
:101CA00000AF786001200CF01BF8FFF72BFFF9E77D
:101CB00080B500AFFFF77AF90346002B02D1FFF79A
:101CC0005DF901E0FFF766F900BF80BD80B500AFA8
:101CD00040212348FFF786F980212148FFF782F948
:101CE0004FF480714FF09040FFF77CF94FF4007192
:101CF0004FF09040FFF776F94FF400614FF09040BD
:101D0000FFF770F94FF480614FF09040FFF76AF9E8
:101D10004FF480411348FFF765F94FF40051114823
:101D2000FFF760F94FF400410E48FFF75BF901211E
:101D30000C48FFF757F902210A48FFF753F9012130
:101D40004FF09040FFF74EF902214FF09040FFF71F
:101D500049F910210248FFF745F900BF80BD00BFD7
:101D6000000800480004004880B483B000AF7860E9
:101D700039607B683A689A6200BF0C37BD465DF8EF
:101D8000047B704780B582B000AF786039607B68B3
:101D90001B6839687868984700BF0837BD4680BD22
:101DA00080B58CB000AF78603960B7F900301A4662
:101DB0007B68B3F84E3002FB03F33B62B7F90230A5
:101DC0001A467B68B3F8723003FB02F21346DB0756
:101DD0009B1A5B00FB61FB69BB61FA693B6A1344B8
:101DE000DA0F13445B107B61FA693B6AD31ADA0F8E
:101DF00013445B103B617B69002B80F2F9803B69E7
:101E0000002B50DA7B68042283F87C207B68B3F8CF
:101E100072309B089BB219467A693B69D31A002B32
:101E200003DA03F57F3303F2FF339B140B44FB62A9
:101E30003B69002B03DA03F5FF3303F2FF135B1456
:101E40001A46FB6A1344BB627B69002B03DA03F575
:101E5000FF3303F2FF135B145B421A46FB6A134421
:101E60007B627B6893F88730002B0CD07B68012263
:101E7000A3F858207B680022A3F85A207B6802222E
:101E8000A3F85C20B1E17B6A9AB27B68A3F8582082
:101E9000FB6A9AB27B68A3F85A20BB6A9AB27B6845
:101EA000A3F85C20A1E1BB69002B50DC7B68032216
:101EB00083F87C207B68B3F872309B089BB219468C
:101EC000BA693B69D31A002B03DA03F57F3303F2B7
:101ED000FF339B140B44FB623B69002B03DA03F5D1
:101EE000FF3303F2FF135B141A46FB6A1344BB6211
:101EF000BB69002B03DA03F5FF3303F2FF135B1416
:101F00005B421A46BB6A13447B627B6893F8873056
:101F1000002B0CD07B680022A3F858207B6801229C
:101F2000A3F85A207B680222A3F85C205DE17B6A5B
:101F30009AB27B68A3F85820BB6A9AB27B68A3F870
:101F40005A20FB6A9AB27B68A3F85C204DE17B685B
:101F5000022283F87C207B68B3F872309B089BB226
:101F600019467A69BB69D31A002B03DA03F57F336C
:101F700003F2FF339B140B44FB627B69002B03DAF3
:101F800003F5FF3303F2FF135B145B421A46FB6A4F
:101F900013447B62BB69002B03DA03F5FF3303F2C2
:101FA000FF135B141A467B6A1344BB627B6893F889
:101FB0008730002B0CD07B680022A3F858207B6868
:101FC0000222A3F85A207B680122A3F85C200CE1CE
:101FD000BB6A9AB27B68A3F858207B6A9AB27B6886
:101FE000A3F85A20FB6A9AB27B68A3F85C20FCE055
:101FF0003B69002B50DB7B68012283F87C207B68E7
:10200000B3F872309B089BB219467A693B69D31AC0
:10201000002B03DA03F57F3303F2FF339B140B44E9
:10202000FB623B69002B03DA03F5FF3303F2FF1376
:102030005B141A46FB6A1344BB627B69002B03DA0C
:1020400003F5FF3303F2FF135B145B421A46FB6A8E
:1020500013447B627B6893F88730002B0CD07B683D
:102060000222A3F858207B680022A3F85A207B683C
:102070000122A3F85C20B8E0BB6A9AB27B68A3F89F
:102080005820FB6A9AB27B68A3F85A207B6A9AB2FE
:102090007B68A3F85C20A8E0BB69002B50DC7B6860
:1020A000052283F87C207B68B3F872309B089BB2D2
:1020B00019467A69BB69D31A002B03DA03F57F331B
:1020C00003F2FF339B140B44FB627B69002B03DAA2
:1020D00003F5FF3303F2FF135B145B421A46FB6AFE
:1020E00013447B62BB69002B03DA03F5FF3303F271
:1020F000FF135B141A467B6A1344BB627B6893F838
:102100008730002B0CD07B680122A3F858207B6815
:102110000222A3F85A207B680022A3F85C2064E026
:10212000FB6A9AB27B68A3F858207B6A9AB27B68F4
:10213000A3F85A20BB6A9AB27B68A3F85C2054E0EB
:102140007B68002283F87C207B68B3F872309B08A0
:102150009BB21946BA693B69D31A002B03DA03F51F
:102160007F3303F2FF339B140B44FB623B69002B6C
:1021700003DA03F5FF3303F2FF135B141A46FB6A1D
:102180001344BB62BB69002B03DA03F5FF3303F290
:10219000FF135B145B421A46BB6A13447B627B6885
:1021A00093F87F30002B04D17B6893F88730002BA5
:1021B0000CD07B680222A3F858207B680122A3F888
:1021C0005A207B680022A3F85C200EE0FB6A9AB2DA
:1021D0007B68A3F85820BB6A9AB27B68A3F85A20A0
:1021E0007B6A9AB27B68A3F85C20FB6A002B02DD55
:1021F000FB6A9AB200E000227B68A3F85020BB6A19
:10220000002B02DDBB6A9AB200E000227B68A3F8D3
:1022100052207B6A002B02DD7B6A9AB200E000222A
:102220007B68A3F854207B68B3F87030012B53D13E
:102230007B68B3F96230002B0BDD7B68B3F850206C
:102240007B68B3F8743013449AB27B68A3F85020CB
:102250000AE07B68B3F850207B68B3F87430D31A77
:102260009AB27B68A3F850207B68B3F96430002BE6
:102270000BDD7B68B3F852207B68B3F874301344ED
:102280009AB27B68A3F852200AE07B68B3F8522028
:102290007B68B3F87430D31A9AB27B68A3F85220E3
:1022A0007B68B3F96630002B0BDD7B68B3F85420F4
:1022B0007B68B3F8743013449AB27B68A3F8542057
:1022C0000AE07B68B3F854207B68B3F87430D31A03
:1022D0009AB27B68A3F854207B685B69786898475A
:1022E0000346FB81FB8918463037BD4680BD80B56B
:1022F00082B000AF78607B685B687868984700BF01
:102300000837BD4680BD80B582B000AF78607B687D
:102310009B687868984700BF0837BD4680BD80B588
:1023200084B000AF78600B46FB700023FB73FB7832
:10233000002B09D17868FFF7DAFF7B68DB687868E3
:1023400098470123FB731DE0FB78012B1AD17B68B2
:10235000B3F86030002B13D07B68B3F86030013BDA
:102360009AB27B68A3F860207B68B3F86030002BDA
:1023700008D17B68DB68786898470123FB7301E02C
:102380000123FB73FB7B18461037BD4680BD80B52B
:1023900084B000AF78607B6893F8853083F00103E8
:1023A000DBB2002B1FD07B6893F87D30022B1AD153
:1023B0007B68DA6B7B68B3F8483019461046FFF744
:1023C000D3FC7B681A6C7B68B3F84A301946104618
:1023D000FFF7CAFC7B685A6C7B68B3F84C3019462F
:1023E0001046FFF7C1FC7B68012283F884207B68DC
:1023F0007A33FB60FB6818461037BD4680BD80B459
:1024000085B000AF786039603B685B6C43F48062F4
:102410003B685A647B68012283F883207B68012231
:1024200083F885207B687A33FB60FB681846143795
:10243000BD465DF8047B704780B485B000AF78601E
:102440000023FB817B6893F88330002B05D00223A7
:10245000FB817B68002283F883207B6893F88230BD
:10246000002B07D0FB8943F04003FB817B680022EF
:1024700083F882207B6893F88430002B07D0FB8997
:1024800043F48063FB817B68002283F88420FB890E
:1024900018461437BD465DF8047B704780B483B09E
:1024A00000AF786039607B681B6B23F00F023B68DC
:1024B0001A437B681A6300BF0C37BD465DF8047B86
:1024C000704780B487B000AFF860B9607A60FB688D
:1024D00030331A46BB681B0A9B0003F00C031344FD
:1024E0007B617B691A68BB6803F01F031F2101FA37
:1024F00003F3DB431A407B689B0E03F01F01BB68AC
:1025000003F01F0301FA03F31A437B691A6000BF4B
:102510001C37BD465DF8047B704780B487B000AFC0
:10252000F860B9607A60FB6814331A46BB685B0ECA
:102530009B0003F0040313447B617B691A68BB684A
:102540001B0D03F01F03072101FA03F3DB431A40BD
:10255000BB681B0D03F01F03796801FA03F31A43EC
:102560007B691A6000BF1C37BD465DF8047B70476D
:1025700080B483B000AF78607B689B6823F0004331
:1025800023F03F0343F001027B689A6000BF0C37E1
:10259000BD465DF8047B704780B483B000AF7860BF
:1025A0007B689B6803F00103012B01D1012300E04C
:1025B000002318460C37BD465DF8047B704780B495
:1025C00083B000AF78607B689B6823F0004323F002
:1025D0003F0343F004027B689A6000BF0C37BD469E
:1025E0005DF8047B704780B483B000AF78607B688F
:1025F0001B6C9BB218460C37BD465DF8047B7047D8
:1026000080B483B000AF78607B681B6803F004037C
:10261000042B01D1012300E0002318460C37BD46EE
:102620005DF8047B704780B483B000AF78607B684E
:1026300004221A6000BF0C37BD465DF8047B70476A
:1026400080B483B000AF78607B6820221A6000BF3E
:102650000C37BD465DF8047B704780B483B000AF93
:1026600078607B685B6823F004027B685A6000BF77
:102670000C37BD465DF8047B704780B483B000AF73
:1026800078607B685B6823F020027B685A6000BF3B
:102690000C37BD465DF8047B7047000080B584B000
:1026A00000AF7860FF23FB730023BB7329E0BB7B83
:1026B0004C4A52F82330002B04D1FB7B042B01D968
:1026C000BB7BFB73BB7B474A52F82330002B15D0F2
:1026D000BB7B444A52F823301A797B681B799A42B3
:1026E0000CD1BB7B3F4A52F823301A687B681B68C9
:1026F0009A4203D1BB7BFB730423BB73BB7B0133C7
:10270000BB73BB7B032BD2D9FB7B032B63D8FB7B37
:1027100034497A6841F82320FB7B334A002142F890
:1027200033107B681B681846FFF736FF0346002B03
:1027300018D17B681B681846FFF78FFF7B681B6802
:102740001846FFF770FF7B681B681846FFF795FF78
:102750007B681B681846FFF773FF7B681B68184689
:10276000FFF706FF7B681B6800211846FFF796FEFF
:102770007B6818687B681B79092B12D87B681B79EA
:102780009B061A467B681B79194601238B401A4326
:102790007B681B7919460B465B000B441B051343F2
:1027A00014E07B681B799B061A467B681B791946E7
:1027B00001238B401A437B681B7919460B465B004B
:1027C0000B441E3B1B05134343F000737A68926869
:1027D0001946FFF7A2FE7B68FA7B1A7300BF103719
:1027E000BD4680BDA41C0020B41C002080B584B070
:1027F00000AF78607B681B7BFB73FB7B3A4A52F827
:1028000023301868FB7B384A52F823301B79092B98
:102810001CD8FB7B344A52F823301B799B0619469F
:10282000FB7B314A52F823301B791A46012393402F
:1028300041EA0302FB7B2C4951F823301B791946EE
:102840000B465B000B441B0513431EE0FB7B264A33
:1028500052F823301B799B061946FB7B224A52F81B
:1028600023301B791A460123934041EA0302FB7B84
:102870001D4951F823301B7919460B465B000B4468
:102880001E3B1B05134343F000731A460621FFF756
:1028900018FEFB7B144A52F823301B681846FFF7DA
:1028A000A2FEFB7B104A52F823301B681846FFF744
:1028B00086FE00BFFB7B0C4A52F823301B6818468B
:1028C000FFF79EFE0346002BF4D0FB7B064A52F82E
:1028D00023301B681846FFF786FE0346BB81BB8981
:1028E00018461037BD4680BDA41C002090B583B0AB
:1028F00000AF1A4B1B68002B2BD0184B1B681B7B9F
:10290000FB71174B1B78012B23D1144B1B68184606
:10291000FFF76CFF03461A46124B1A80104B022237
:102920001A70FB79104A52F83330002B11D00C4B3F
:1029300000221A70FB790C4A52F83340074B186892
:10294000084B1988FB79084ADB0013445B681A4678
:10295000A04700BF0C37BD4690BD00BFD81C00206B
:10296000D61C0020D41C0020B41C002080B489B0E8
:1029700000AF7860B7F904303B81B7F904301A46EC
:1029800044F6E61302FB03F3BB61B7F906301A46BF
:1029900044F6E61302FB03F37B61BB695A427B6991
:1029A000D21A7B69D31ADB133B613B69B3F5004F45
:1029B00003DB47F6FF73FB8309E03B6913F5004F28
:1029C00003DA4FF40043FB8301E03B69FB83FB8B9D
:1029D0007B81B7F90A3013F5004F02D148F20103A9
:1029E0007B81BB68FB600023BA8962F30F03FA891D
:1029F00062F31F4318462437BD465DF8047B7047D9
:102A000080B58CB000AF78600B467B80B7F90230A0
:102A1000184600F0AFF80346FB60B7F90430B7F989
:102A20000C2002FB03F3BB62B7F90630B7F90E20A6
:102A300002FB03F37B62BA6A7B6AD31ADB133B6245
:102A40003B6AB3F5004F03DB47F6FF73FB8509E0F4
:102A50003B6A13F5004F03DA4FF40043FB8501E0B6
:102A60003B6AFB85FB8D3B82B7F9103013F5004FB5
:102A700002D148F201033B82B7F90430B7F90E20C6
:102A800002FB03F3FB61B7F90630B7F90C2002FB38
:102A900003F3BB61FA69BB691344DB133B623B6A16
:102AA000B3F5004F03DB47F6FF73FB8509E03B6A94
:102AB00013F5004F03DA4FF40043FB8501E03B6A56
:102AC000FB85FB8D7B82B7F9123013F5004F02D1E5
:102AD00048F201037B823B697B610023BA8A62F37F
:102AE0000F03FA8A62F31F4318463037BD4680BD94
:102AF00080B58AB000AF78600B467B80B7F90230B2
:102B0000184600F037F803463B61B7F90430B7F9CF
:102B1000102002FB03F37B62B7F90630B7F91220ED
:102B200002FB03F33B627A6A3B6A1344DB131BB27A
:102B3000BB81B7F90430B7F9122002FB03F3FB6144
:102B4000B7F90630B7F9102002FB03F3BB61BA698D
:102B5000FB69D31ADB131BB2FB81FB687B6100238B
:102B6000BA8A62F30F03FA8A62F31F4318462837C2
:102B7000BD4680BD80B487B000AF0346FB80B7F987
:102B8000063003F500437B617B697B827B8A9B096E
:102B90007B827B8A03F44073B3F5407F1FD0B3F58B
:102BA000407F5FD8B3F5007F08D0B3F5007F59D8D8
:102BB000002B29D0B3F5807F3FD053E07B8ADBB276
:102BC0001A46304B33F912307B817B8ADBB2DB4310
:102BD000DBB21A462B4B33F912303B8143E07B8A40
:102BE000DBB2DB43DBB21A46264B33F912307B8172
:102BF0007B8ADBB21A46234B33F912309BB25B421D
:102C00009BB21BB23B812EE07B8ADBB21A461D4B86
:102C100033F912309BB25B429BB21BB27B817B8A41
:102C2000DBB2DB43DBB21A46164B33F912309BB2F0
:102C30005B429BB21BB23B8115E07B8ADBB2DB437C
:102C4000DBB21A460F4B33F912309BB25B429BB298
:102C50001BB27B817B8ADBB21A460A4B33F91230F6
:102C60003B8100E000BFBB68FB600023BA8962F3D0
:102C70000F03FA8962F31F4318461C37BD465DF8FF
:102C8000047B7047982C010880B487B000AF78604F
:102C90007B68002B28DD0023FB747B68B3F5001FE5
:102CA00002DC8023FB6002E04FF40053FB607A6893
:102CB000FB6892FBF3F2FB681344DA0F13445B10DA
:102CC0007B617A69FB689A4202D0FB68002B02D1D3
:102CD0000623FB7404E0FB7C0133FB747B69FB601F
:102CE000FB7C052BE3D901E000237B617B6918465F
:102CF0001C37BD465DF8047B704780B485B000AFDB
:102D0000F860B9607A603B60FB68BA681A60FB687B
:102D10007A685A60FB683A681A61FB68BA699A6017
:102D2000FB6800221A75FB680022DA82FB68002229
:102D30001A83FB6800229A84FB68002283F82C2007
:102D4000FB68002283F82620FB68002283F82720F6
:102D5000FB6800221A85FB6800225A8500BF1437E1
:102D6000BD465DF8047B704780B483B000AF7860E7
:102D70000B467B8013463B807B6801221A757B687B
:102D80007A88DA827B683A889A847B68012283F8A1
:102D90002C207B68032283F82D2000BF0C37BD4612
:102DA0005DF8047B704780B483B000AF78600B4659
:102DB0007B8013463B807B6802221A757B687A8889
:102DC0001A837B683A889A847B68012283F82C20D6
:102DD0007B68042283F82D2000BF0C37BD465DF8C8
:102DE000047B704780B483B000AF786039607B6843
:102DF00003221A75B7F900207B685A83B7F90220BD
:102E00007B689A837B68012283F82C207B680422EC
:102E100083F82D2000BF0C37BD465DF8047B70475A
:102E200080B586B000AFF86087ED020AC7ED010AF1
:102E3000FB685B68002283F82420FB681B68184647
:102E40000DF025FE034618460DF037FD07EE900AFB
:102E5000B8EEE77ADFED166AC7EE267AC7ED057A97
:102E6000D7ED017AF5EEC07AF1EE10FA11DDFB68CC
:102E70001B6997ED027AD7ED057A77EE677A97EDC1
:102E8000011AF0EE670A97ED050A18460CF08CFC63
:102E900006E0FB681B6997ED020A18460CF060FD1E
:102EA000FB68042283F82D2000BF1837BD4680BD83
:102EB00083F9224680B584B000AF78600023FB73AD
:102EC000786800F024F90346002B15D1786800F0EB
:102ED0003BF90346002B0FD1786800F041F9034617
:102EE000002B09D17B68012283F826207B68012210
:102EF00083F82C200123FB73FB7B18461037BD465B
:102F000080BD80B584B000AF78600123FB73786822
:102F100000F0FDF80346002B1AD1786800F014F990
:102F20000346002B14D1786800F01AF90346002BF1
:102F30000ED17B68012283F826207B68012283F86A
:102F40002C207B689B68002283F881200023FB7380
:102F5000FB7B18461037BD4680BD80B584B000AFFE
:102F600078600023FB73786800F0D1F803467B7328
:102F70007B7B002B02D07B7B0C2B02D10023BB730D
:102F800001E00123BB73786800F0DEF80346002BF4
:102F90000ED1786800F0E4F80346002B08D1BB7B23
:102FA000002B05D07B68052283F826200123FB73C4
:102FB000FB7B18461037BD4680BD80B584B000AF9E
:102FC00078600023FB73786800F0A1F803460B2BB0
:102FD0000ED1786800F0C4F80346002B08D17B6856
:102FE00000225A857B68022283F826200123FB7386
:102FF000FB7B18461037BD4680BD80B483B000AF60
:1030000078600B467B8013463B807B681A8D7B88FB
:1030100013439BB21AB2B7F90030DB431BB2134023
:103020001BB29AB27B681A857B685A8D7B881343E2
:103030009AB27B685A8500BF0C37BD465DF8047BA9
:10304000704780B584B000AF78607B6893F82C300F
:10305000012B58D10023FB737B681B7D032B36D0DB
:10306000032B43DC012B02D0022B18D03EE07B68FF
:103070005B68002283F824207B681B6803211846C4
:103080000DF03FFD7B6818687B68B3F916107B680C
:103090009B8C1A460DF048FD0346FB7327E07B68C6
:1030A0005B68002283F824207B681B680421184693
:1030B0000DF027FD7B6818687B68B3F918107B68F2
:1030C0009B8C1A460DF030FD0346FB730FE07B68C6
:1030D0005B68012283F824207B685B687A68103380
:1030E0001A3212681A600123FB7300E000BFFB7BF9
:1030F000002B04D07B68022283F82C2003E07B683D
:10310000032283F82C2000BF1037BD4680BD80B459
:1031100083B000AF78607B6893F8273018460C378F
:10312000BD465DF8047B704780B582B000AF786023
:103130007B681B6918460CF051FEF0EE407AB0EE49
:10314000670A0837BD4680BD80B483B000AF7860A1
:103150007B685B8D18460C37BD465DF8047B704775
:1031600080B483B000AF78607B681B8D18460C3745
:10317000BD465DF8047B704780B485B000AF7860D1
:103180007B685B8DFB607B681B8D1B04FA681343B7
:10319000FB60FB6818461437BD465DF8047B70473A
:1031A00080B483B000AF78607B6893F82D30184608
:1031B0000C37BD465DF8047B704780B483B000AF28
:1031C00078607B68B3F9163018460C37BD465DF859
:1031D000047B704780B483B000AF78607B68B3F93C
:1031E000183018460C37BD465DF8047B704780B434
:1031F00083B000AF78607B689B8C18460C37BD4667
:103200005DF8047B704780B582B000AF78607B6862
:103210001B6818460DF01EFD00BF0837BD4680BD77
:1032200080B584B000AF78607B681B6818460DF0ED
:103230002EFCF860F8680DF04CFB03467B81B7F973
:103240000A3018461037BD4680BD80B582B000AF49
:1032500078607B681B6818460DF037FC03461846FB
:103260000837BD4680BD80B485B000AF78607B680C
:103270005A6807F10C03106818600023BA8962F3DA
:103280000F03FA8962F31F4318461437BD465DF8F1
:10329000047B704780B485B000AF78607B685A6863
:1032A00007F10C030432106818600023BA8962F336
:1032B0000F03FA8962F31F4318461437BD465DF8C1
:1032C000047B704780B485B000AF78607B685A6833
:1032D00007F10C030C32106818600023BA8962F3FE
:1032E0000F03FA8962F31F4318461437BD465DF891
:1032F000047B704780B485B000AF78607B685A6803
:1033000007F10C031032106818600023BA8962F3C9
:103310000F03FA8962F31F4318461437BD465DF860
:10332000047B704780B485B000AF78607B685A68D2
:1033300007F10C031632106818600023BA8962F393
:103340000F03FA8962F31F4318461437BD465DF830
:10335000047B704780B485B000AF78607B685A68A2
:1033600007F10C031A32106818600023BA8962F35F
:103370000F03FA8962F31F4318461437BD465DF800
:10338000047B704780B483B000AF78607B685B6873
:10339000B3F91E3018460C37BD465DF8047B704704
:1033A00090B583B000AF78607B681A687B685C6812
:1033B00010460DF0C8FC03461A462282C3F30F43A1
:1033C000638200BF0C37BD4690BD80B582B000AFB0
:1033D00078600B46FB707B68DB68FA78114618460C
:1033E00002F082FB00BF0837BD4680BD80B483B0C9
:1033F00000AF78607B681B6803F04003402B01D16D
:10340000012300E0002318460C37BD465DF8047B1D
:10341000704780B483B000AF78607B6840221A6048
:1034200000BF0C37BD465DF8047B704780B483B0A5
:1034300000AF78607B686FF001021A6100BF0C3743
:10344000BD465DF8047B704780B483B000AF786000
:103450007B681B6903F00103012B01D1012300E00C
:10346000002318460C37BD465DF8047B704780B4D6
:1034700083B000AF78607B686FF080021A6100BF94
:103480000C37BD465DF8047B704780B483B000AF55
:1034900078607B681B6903F08003802B01D10123D6
:1034A00000E0002318460C37BD465DF8047B7047EA
:1034B00080B483B000AF78607B686FF480721A616B
:1034C00000BF0C37BD465DF8047B704780B483B005
:1034D00000AF78607B681B6903F48073B3F5807F6D
:1034E00001D1012300E0002318460C37BD465DF8EA
:1034F000047B704780B483B000AF78607B68DB6882
:1035000003F00103012B01D1012300E00023184641
:103510000C37BD465DF8047B704780B483B000AFC4
:1035200078607B68DB6903F00203022B01D1012381
:1035300000E0002318460C37BD465DF8047B704759
:1035400080B483B000AF78607B68DB6903F004036C
:10355000042B01D1012300E0002318460C37BD469F
:103560005DF8047B704780B483B000AF78607B68FF
:10357000DB6903F00803082B01D1012300E00023DD
:1035800018460C37BD465DF8047B704780B483B0A5
:1035900000AF78607B68DB6903F01003102B01D16A
:1035A000012300E0002318460C37BD465DF8047B7C
:1035B000704780B483B000AF78607B68DB6903F04C
:1035C0004003402B01D1012300E0002318460C37B3
:1035D000BD465DF8047B704780B483B000AF78606F
:1035E0007B6840221A6200BF0C37BD465DF8047B41
:1035F000704780B489B000AF78607B68FB60FB687F
:1036000053E8003FBB60BB6843F01003FB617B687D
:10361000FA69BA617B617969BA6941E800233B6163
:103620003B69002BE9D100BF00BF2437BD465DF8E0
:10363000047B704780B489B000AF78607B68083342
:10364000FB60FB6853E8003FBB60BB6843F00103CD
:10365000FB617B680833FA69BA617B617969BA6991
:1036600041E800233B613B69002BE7D100BF00BF6D
:103670002437BD465DF8047B704780B489B000AF45
:1036800078607B68FB60FB6853E8003FBB60BB6809
:1036900023F01003FB617B68FA69BA617B61796989
:1036A000BA6941E800233B613B69002BE9D100BFC7
:1036B00000BF2437BD465DF8047B704780B489B0F5
:1036C00000AF78607B680833FB60FB6853E8003F1D
:1036D000BB60BB6823F00103FB617B680833FA69B8
:1036E000BA617B617969BA6941E800233B613B6952
:1036F000002BE7D100BF00BF2437BD465DF8047B37
:10370000704780B483B000AF78607B681B6803F0BB
:103710001003102B01D1012300E0002318460C37C1
:10372000BD465DF8047B704780B483B000AF78601D
:103730007B689B6803F00103012B01D1012300E0AA
:10374000002318460C37BD465DF8047B704780B4F3
:1037500089B000AF78607B680833FB60FB6853E892
:10376000003FBB60BB6843F04003FB617B680833EC
:10377000FA69BA617B617969BA6941E800233B6102
:103780003B69002BE7D100BF00BF2437BD465DF881
:10379000047B704780B489B000AF78607B680833E1
:1037A000FB60FB6853E8003FBB60BB6823F040034D
:1037B000FB617B680833FA69BA617B617969BA6930
:1037C00041E800233B613B69002BE7D100BF00BF0C
:1037D0002437BD465DF8047B704780B483B000AFEA
:1037E00078607B689B8C9BB2DBB218460C37BD4679
:1037F0005DF8047B7047000080B485B000AF78604E
:1038000039607B68FB600C4A3B6813441B781A469E
:10381000FB6813441B6808493A680A441278114649
:10382000FA680A4423F00103136000BF1437BD4651
:103830005DF8047B704700BF982E010880B483B008
:1038400000AF786039607B68002B05D03B689B0037
:1038500002229A407B685A6000BF0C37BD465DF873
:10386000047B704780B483B000AF786039607B68B8
:10387000002B12D07B681A683B689B00022101FA7A
:1038800003F31A403B689B00022101FA03F39A42BA
:1038900001D1012302E0002300E0002318460C3789
:1038A000BD465DF8047B704780B483B000AF78609C
:1038B000044B5A697B68134018460C37BD465DF8C7
:1038C000047B70470004014080B483B000AF78608F
:1038D000044A7B68536100BF0C37BD465DF8047B2A
:1038E000704700BF0004014080B500AF0648FFF7F5
:1038F0007DFD0346002B02D00348FFF78AFDFEF74B
:1039000041F800BF80BD00BF0000045080B500AF8B
:103910000348FFF78BFD03480EF071FB00BF80BD2D
:10392000002C01406401002080B500AF0E48FFF775
:10393000ACFD0346002B06D00B48FFF798FD0A4963
:103940000A48FEF75CFD0848FFF7C0FD0346002B60
:1039500005D00548FFF7ACFD0448FEF718FDFDF75C
:103960006DFC00BF80BD00BF002C01406401002041
:1039700080B500AF0C4B1B6A1846FFF7BBFD034632
:10398000002B0FD0084B1B6A1846FFF75DFD03465E
:10399000002B07D0044B1B6A1846FFF747FD02486F
:1039A0000BF086FD00BF80BD4002002080B500AF57
:1039B00005210748FFF756FF0346002B06D00521D7
:1039C0000348FFF73BFF034803F076F900BF80BDD3
:1039D000000002401004002080B500AF2848FFF727
:1039E000E8FD0346002B09D006212648FFF704FF17
:1039F0002348FFF7F1FD244802F0DEFF2048FFF7DF
:103A0000B2FD0346002B0BD11D48FFF786FD034690
:103A1000002B05D11A48FFF793FD0346002B0ED06B
:103A20001748FFF781FE0346002B08D0144B0E22E7
:103A30001A621348FFF742FE1148FFF7DAFD1048FB
:103A4000FFF7A4FD0346002B17D00D48FFF759FEE2
:103A50000346002B11D00A48FFF70FFE0848FFF776
:103A6000E9FD0748FFF796FE0548FFF7B6FE044854
:103A7000FFF76DFE044803F097F900BF80BD00BF5B
:103A800000440040000002401004002080B500AF58
:103A9000FEF7EEF8FEE780B500AF4FF40050FFF7F9
:103AA00003FF0346002B05D04FF40050FFF70CFF37
:103AB000FEF7FEF800BF80BD80B588B000AFBA60E9
:103AC0007B600346FB810B467B730023FB777B7B8C
:103AD000083B202B00F2C38001A252F823F000BF64
:103AE000653B00085F3C00085F3C00085F3C000845
:103AF0005F3C00085F3C00085F3C00085F3C00083A
:103B00007F3B00085F3C00085F3C00085F3C00080A
:103B10005F3C00085F3C00085F3C00085F3C000819
:103B2000CB3B00085F3C00085F3C00085F3C00089E
:103B30005F3C00085F3C00085F3C00085F3C0008F9
:103B4000E53B00085F3C00085F3C00085F3C000864
:103B50005F3C00085F3C00085F3C00085F3C0008D9
:103B6000013C0008FB89482B02D10423FB7702E0CB
:103B70000523FB7700BF7B6801221A8075E0FB8973
:103B800041F65832934215D041F65832934214DC34
:103B9000B3F5696F14D0B3F5696F0EDCB3F5656FDB
:103BA0000ED0B3F5656F08DCB3F5B26F02D0B3F594
:103BB000BA6F02D10423FB7703E00523FB7700E013
:103BC00000BF7B6802221A804FE0FB89182B02D1CC
:103BD0000423FB7702E00523FB7700BF7B68042208
:103BE0001A8042E0BB687B61BB683B610423FB77C2
:103BF000B7F928307A683969786901F0EBFA34E06E
:103C0000BB681B88BB83BB8B02339AB27B681A806C
:103C1000BB68BB61BB690133BB61BB690133BB617D
:103C20007B681A883B8D9A4205D97B6800221A80EE
:103C30000A23FB7719E0FB89E82B09D0E82B0ADC83
:103C4000A82B05D0A82B06DC282B01D0682B02D18D
:103C50000423FB7702E00523FB7700BF05E0072381
:103C6000FB777B6800221A8000BFFB7F1846203755
:103C7000BD4680BD80B596B000AFBA607B6003469C
:103C8000FB810B467B73002387F85730002387F8AE
:103C9000563097F8562013465B0013441B01474AE1
:103CA00013443B657B7B083B202B00F2B18301A2D0
:103CB00052F823F0393D000811440008114400086F
:103CC0001144000811440008114400081144000880
:103CD00011440008C13D00081144000811440008C7
:103CE0001144000811440008114400081144000860
:103CF000114400083742000811440008114400082C
:103D0000114400081144000811440008114400083F
:103D100011440008834200081144000811440008BF
:103D2000114400081144000811440008114400081F
:103D300011440008A1420008FB89B3F5B16F30D0EF
:103D4000B3F5B16F31DCB3F5A96F2AD0B3F5A96F24
:103D50002BDC482B02D0882B04D026E0042387F8E4
:103D6000573027E0BB681B7887F8293097F829304F
:103D7000042B08D1386DFFF705FB034600221946D6
:103D8000386DFFF710F897F82930032B11D1386DF3
:103D9000FFF75BFA034600221946386DFEF7E4FF91
:103DA00007E0042387F8573004E0052387F85730ED
:103DB00000E000BF7B6801221A8030E3840A002003
:103DC000BB681B887B85FB8941F65832934200F023
:103DD000A68141F65832934200F3248241F21072D8
:103DE000934200F0198241F21072934200F31A825A
:103DF00041F2D062934200F0098241F2D0629342D4
:103E000000F3108241F29062934200F0F98141F296
:103E10009062934200F3068241F25062934200F0B6
:103E2000E98141F25062934200F3FC8141F2106259
:103E3000934200F0D98141F21062934200F3F28183
:103E400041F2D052934200F0C98141F2D0529342E4
:103E500000F3E88141F29052934200F0B98141F2BF
:103E60009052934200F3DE8141F25052934200F0AF
:103E7000A98141F25052934200F3D48141F2105291
:103E8000934200F0998141F21052934200F3CA81AB
:103E900041F2D042934200F0898141F2D0429342F4
:103EA00000F3C08141F29042934200F0798141F2E7
:103EB0009042934200F3B68141F25042934200F0A7
:103EC000698141F25042934200F3AC8141F21042C9
:103ED000934200F0588141F21042934200F3A281D4
:103EE00041F2D032934200F0478141F2D032934206
:103EF00000F3988141F29032934200F0368141F212
:103F00009032934200F38E81B3F5696F00F08E8199
:103F1000B3F5696F00F38681B3F5656F00F08681B4
:103F2000B3F5656F00F37E81B3F5316F00F0198151
:103F3000B3F5316F00F37681B3F52D6F00F0118189
:103F4000B3F52D6F00F36E81B3F5296F00F0098191
:103F5000B3F5296F00F36681B3F5256F00F0018199
:103F6000B3F5256F00F35E81B3F5216F00F0F980A2
:103F7000B3F5216F00F35681B3F51D6F00F0F180AA
:103F8000B3F51D6F00F34E81B3F5196F00F0DC80BF
:103F9000B3F5196F00F34681B3F5156F00F0C780D4
:103FA000B3F5156F00F33E81B3F5116F00F0BB80E0
:103FB000B3F5116F00F33681B3F50D6F00F0B380E8
:103FC000B3F50D6F00F32E81B3F5096F00F0AB80F0
:103FD000B3F5096F00F32681B3F5056F00F0A380F8
:103FE000B3F5056F00F31E81B3F5016F00F09B8000
:103FF000B3F5016F00F31681B3F5FA6F00F093800B
:10400000B3F5FA6F00F30E81B3F5F26F00F08B8019
:10401000B3F5F26F00F30681B3F5BA6F7FD0B3F555
:10402000BA6F00F3FF80B3F5B26F78D0B3F5B26F1B
:1040300000F3F880B3F5447F6AD0B3F5447F00F312
:10404000F180B3F5347F5CD0B3F5347F00F3EA80C0
:10405000B3F5247F4ED0B3F5247F00F3E380B3F5AE
:10406000047F40D0B3F5047F00F3DC80B3F5E87F34
:1040700032D0B3F5E87F00F3D580B3F5C87F24D004
:10408000B3F5C87F00F3CE80B3F5887F16D0B3F5C3
:10409000887F00F3C780902B02D0D02B07D0C1E0DF
:1040A000B7F92A301946A7480BF0BCFFBFE0B7F9B3
:1040B0002A301946A3480BF0C4FFB8E0B7F92A30FC
:1040C0001946A0480CF064F8B1E0B7F92A30194657
:1040D0009D480BF0A7FFAAE0B7F92A3019469A4885
:1040E0000BF0AFFFA3E0B7F92A30194696480CF061
:1040F0004FF89CE0B7F92A30194694480BF092FF2C
:1041000095E0B7F92A30194690480BF09AFF8EE0F7
:10411000B7F92A3019468D480CF03AF887E00423A5
:1041200087F8573083E0042387F857307FE0386DF5
:10413000FFF7E0F803467B62B7F92A30BB84796A5F
:10414000386DFEF74FFE72E0386DFFF7D3F8034687
:104150003B62B7F92A307B84396A386DFEF742FE3C
:1041600065E0042387F8573061E0B7F92A30194633
:1041700077480BF057FF5AE0B7F92A3019467448D0
:104180000BF05FFF53E0B7F92A30194670480BF087
:10419000FFFF4CE07B8D19466A480BF095FF46E027
:1041A0007B8D194667480BF0B1FF40E07B8D1946C7
:1041B00064480CF015F83AE07B8D194663480BF023
:1041C00083FF34E07B8D194660480BF09FFF2EE0A3
:1041D0007B8D19465D480CF003F828E07B8D19466D
:1041E00059480BF071FF22E07B8D194656480BF0C1
:1041F0008DFF1CE07B8D194653480BF0F1FF16E054
:104200007B8D194652480BF05FFF10E07B8D1946FD
:104210004F480BF07BFF0AE07B8D19464C480BF0B2
:10422000DFFF04E0052387F8573000E000BF7B681C
:1042300002221A80F3E0BB681B68FB62FB89982BA3
:1042400009D0982B15DC182B01D0582B11D1042341
:1042500087F8573011E0FB6A1BB23E4A82FB03121B
:10426000DB17D31A1BB200221946386DFEF77CFD0E
:1042700003E0052387F8573000BF7B6804221A80CB
:10428000CDE0BB687B63BB683B63042387F8573092
:10429000B7F960307A68396B786B00F09BFFBEE04D
:1042A000BB681B88A7F84E30B7F84E3002339AB27D
:1042B0007B681A80BB68BB64BB6C0133BB64BB6C9E
:1042C0000133BB647B681A88B7F860309A4206D91C
:1042D0007B6800221A800A2387F857309FE0FB8909
:1042E000B3F5A56F00F08780B3F5A56F00F38B8061
:1042F000B3F56A7F53D0B3F56A7F00F38480B3F5DA
:104300005A7F6BD0B3F55A7F7DDCB3F5F47F36D09E
:10431000B3F5F47F77DCB3F5D47F1DD0B3F5D47F4C
:1043200071DCE82B09D0E82B6DDCA82B05D0A82B7D
:1043300069DC282B01D0682B65D1042387F857301E
:1043400065E000BF100000203C0000206800002055
:1043500094000020ABAAAA2ABB6C1B68FB63BB6C51
:104360009B887B87FB6B314A82FB0312DB17D31AD6
:104370001BB27A8F1946386DFEF7F6FC47E0BB6C2E
:104380001B687B64BB6C9B88A7F842307B6C1BB2BC
:10439000B7F842201946386DFEF705FD37E0BB6CD3
:1043A0000233B3F900301B04BA6C12881343FB616B
:1043B000BB6C0633B3F900301B04BA6C04321288AC
:1043C0001343BB61D7ED077A97ED067AF0EE470A03
:1043D000B0EE670A386DFEF723FD18E0BB6CB3F949
:1043E0000030BB82BB6CB3F90230FB827969386D57
:1043F000FEF7F8FC0BE0B96C0D480EF0FFFA03462F
:1044000087F8573003E0052387F8573000BF06E0F0
:10441000072387F857307B6800221A8000BF97F87F
:10442000573018465837BD4680BD00BFABAAAA2AF0
:104430009404002080B58EB000AFBA607B60034664
:10444000FB810B467B73002387F83730002387F806
:10445000363097F8362013465B0013441B018F4A11
:1044600013443B637B7B083B202B00F20D8101A2B0
:1044700052F823F0F94400088946000889460008EC
:1044800089460008894600088946000889460008D0
:104490008946000819450008894600088946000831
:1044A00089460008894600088946000889460008B0
:1044B00089460008494500088946000889460008E1
:1044C0008946000889460008894600088946000890
:1044D00089460008DF45000889460008894600082B
:1044E0008946000889460008894600088946000870
:1044F000894600082B460008B7F94030002B07DD3D
:10450000052387F8373000BF7B6801221A80BFE09F
:10451000082387F83730BBE0B7F94030012B0FDDB7
:10452000FB89B3F5656F06D0B3F5696F03D005233A
:1045300087F8373000E000BF7B6802221A80A7E0CE
:10454000082387F83730A3E0BB683B62B7F94030F7
:10455000032B40DDFB8941F29862934226D041F261
:10456000986293422FDC41F21862934204D041F2E8
:10457000586293420DD026E03B6BDB68184601F091
:10458000ABFBF0EE407AC7ED077AFA693B6A1A6036
:104590001DE03B6BDB68184601F04EFCF0EE407A04
:1045A000C7ED067ABA693B6A1A6010E03B6BDB68BC
:1045B000184601F0E9FBF0EE407AC7ED057A7A691A
:1045C0003B6A1A6003E0052387F8373000BF7B6839
:1045D00004221A805CE0082387F8373058E0BB6873
:1045E0007B62FB89202B02D0602B0BD015E0B7F942
:1045F00040307A68796A2A4800F0ECFD034687F873
:10460000373011E0B7F940307A68796A254800F010
:10461000E1FD034687F8373006E0052387F8373099
:104620007B6800221A8000BF32E0BB68FB62BB6877
:10463000BB62BB6A0133BB62BB6A0133BB62FB89ED
:10464000282B16D1FB6A0A221A80FB6A1B880233C8
:10465000B7F84020934203D9082387F837300CE09D
:10466000BB6A114A106851681860596012891A8132
:1046700003E0052387F8373000BFFB6A1B8802334D
:104680009AB27B681A8003E0072387F8373000BFAF
:1046900097F8373018463837BD4680BD840A002069
:1046A000FC2E0108D82E0108102F010890B5ABB0E0
:1046B00000AFBA607B600346FB810B467B7300232F
:1046C00087F8A730002387F8A63097F8A62013466E
:1046D0005B0013441B014B4A1344C7F8A0304A4BFC
:1046E000C7F89C307B7B083B202B00F2668501A23B
:1046F00052F823F079470008BB510008BB5100086D
:10470000BB510008BB510008BB510008BB51000859
:10471000BB51000811480008BB510008BB510008FC
:10472000BB510008BB510008BB510008BB51000839
:10473000BB510008DB4D0008BB510008BB5100080D
:10474000BB510008BB510008BB510008BB51000819
:10475000BB510008B14E0008BB510008BB51000816
:10476000BB510008BB510008BB510008BB510008F9
:10477000BB510008114F0008B7F9B830002B3CDDE1
:10478000FB89B3F5B16F27D0B3F5B16F2CDCB3F56E
:10479000A96F19D0B3F5A96F26DC482B02D0882B5E
:1047A00009D021E0D7F8A000FEF7B1FC03461A4675
:1047B000BB681A701CE0D7F8A000FEF7F1FC0346B6
:1047C0001A46BB681A7013E010480BF043FB03460F
:1047D0001A46BB681A700BE00C480BF048FB034606
:1047E0001A46BB681A7003E0052387F8A73000BF9C
:1047F0007B6801221A8000F0E4BC082387F8A73008
:1048000000F0DFBC840A0020B0030020C0000020BC
:10481000BB683B66BB68FB65B7F9B830012B40F35A
:10482000D882FB8941F21072934200F0C18241F2BA
:104830001072934200F3C48241F2D062934200F0BE
:10484000A28241F2D062934200F3BA8241F29062B6
:10485000934200F0908241F29062934200F3B08262
:1048600041F25062934200F07E8241F250629342E4
:1048700000F3A68241F21062934200F06C8241F292
:104880001062934200F39C8241F2D052934200F0B6
:104890005A8241F2D052934200F3928241F29052F6
:1048A000934200F0488241F29052934200F3888292
:1048B00041F25052934200F0368241F250529342FC
:1048C00000F37E8241F21052934200F0248241F2C2
:1048D0001052934200F3748241F2D042934200F0AE
:1048E000128241F2D042934200F36A8241F2904236
:1048F000934200F0008241F29042934200F36082C2
:1049000041F25042934200F0EE8141F25042934214
:1049100000F3568241F21042934200F0DC8141F2F2
:104920001042934200F34C8241F2D032934200F0A5
:10493000CA8141F2D032934200F3428241F2903276
:10494000934200F0B88141F29032934200F33882F2
:10495000B3F5696F00F03882B3F5696F00F3308208
:10496000B3F5656F00F03082B3F5656F00F3288210
:10497000B3F5316F00F09781B3F5316F00F320820A
:10498000B3F52D6F00F08781B3F52D6F00F318821A
:10499000B3F5296F00F07481B3F5296F00F310822D
:1049A000B3F5256F00F06181B3F5256F00F3088240
:1049B000B3F5216F00F04E81B3F5216F00F3008253
:1049C000B3F51D6F00F03B81B3F51D6F00F3F88167
:1049D000B3F5196F00F02881B3F5196F00F3F0817A
:1049E000B3F5156F00F01581B3F5156F00F3E8818D
:1049F000B3F5116F00F00281B3F5116F00F3E081A0
:104A0000B3F50D6F00F0EF80B3F50D6F00F3D881B3
:104A1000B3F5096F00F0DC80B3F5096F00F3D081C6
:104A2000B3F5056F00F0C980B3F5056F00F3C881D9
:104A3000B3F5016F00F0B680B3F5016F00F3C081EC
:104A4000B3F5FA6F00F0A380B3F5FA6F00F3B88105
:104A5000B3F5BA6F00F09380B3F5BA6F00F3B0818D
:104A6000B3F5B26F00F08280B3F5B26F00F3A881A6
:104A7000B3F5447F72D0B3F5447F00F3A181B3F561
:104A8000347F63D0B3F5347F00F39A81B3F5247F8C
:104A900054D0B3F5247F00F39381B3F5047F45D060
:104AA000B3F5047F00F38C81B3F5E87F36D0B3F51E
:104AB000E87F00F38581B3F5C87F27D0B3F5C87FC1
:104AC00000F37E81B3F5887F18D0B3F5887F00F3BB
:104AD0007781902B02D0D02B08D071E1AE480BF03B
:104AE000BFFA03461A46FB6D1A806EE1AA480BF026
:104AF000C4FA03461A46FB6D1A8066E1A6480BF01D
:104B000056FB03461A46FB6D1A805EE1A3480BF084
:104B1000A7FA03461A46FB6D1A8056E19F480BF030
:104B2000ACFA03461A46FB6D1A804EE19B480BF027
:104B30003EFB03461A46FB6D1A8046E198480BF08F
:104B40008FFA03461A46FB6D1A803EE194480BF03B
:104B500094FA03461A46FB6D1A8036E190480BF032
:104B600026FB03461A46FB6D1A802EE1D7F89C00FF
:104B70000AF086F803461A463B6E1A8025E18948FA
:104B80000BF004FA03461A46FB6D1A801DE1D7F8B4
:104B9000A000FEF768FB03467B62B7F92420FB6D9B
:104BA0001A8012E1D7F8A000FEF75DFB0346BB6256
:104BB000B7F92A20FB6D1A8007E1D7F8A000FEF7AD
:104BC00069FB0346FB62B7F92C20FB6D1A80FCE001
:104BD000D7F8A000FEF75EFB03463B63B7F932202F
:104BE000FB6D1A80F1E0D7F8A000FEF76BFB0346DF
:104BF0007B63B7F93420FB6D1A80E6E0D7F8A0009C
:104C0000FEF760FB0346BB63B7F93A20FB6D1A80E1
:104C1000DBE0D7F8A000FEF76DFB0346FB63B7F9B6
:104C20003C20FB6D1A80D0E0D7F8A000FEF762FBB5
:104C300003463B64B7F94220FB6D1A80C5E0D7F804
:104C4000A000FEF76FFB03467B64B7F94420FB6DC1
:104C50001A80BAE0D7F8A000FEF764FB0346BB64F5
:104C6000B7F94A20FB6D1A80AFE0D7F8A000FEF735
:104C700071FB0346FB64B7F94C20FB6D1A80A4E07E
:104C8000D7F8A000FEF766FB03463B65B7F9522054
:104C9000FB6D1A8099E044480BF002FE03461A4669
:104CA000FB6D1A8091E040480BF098FE03461A46CF
:104CB000FB6D1A8089E03D480BF0D2F903461A4695
:104CC000FB6D1A8081E039480BF0D7F903461A468C
:104CD000FB6D1A8079E035480BF069FA03461A46F5
:104CE000FB6D1A8071E02C480BF0E2F903461A467E
:104CF0003B6E1A8069E028480BF0FCF903461A461F
:104D00003B6E1A8061E024480BF05EFA03461A46B7
:104D10003B6E1A8059E022480BF0CAF903461A4646
:104D20003B6E1A8051E01E480BF0E4F903461A4628
:104D30003B6E1A8049E01A480BF046FA03461A46C1
:104D40003B6E1A8041E015480BF0B2F903461A4653
:104D50003B6E1A8039E011480BF0CCF903461A4635
:104D60003B6E1A8031E00D480BF02EFA03461A46CE
:104D70003B6E1A8029E00D480BF09AF903461A465B
:104D80003B6E1A8021E009480BF0B4F903461A463D
:104D90003B6E1A8019E000BF100000203C0000208C
:104DA00068000020840300204002002094000020BE
:104DB000B2480BF009FA03461A463B6E1A8004E02B
:104DC000052387F8A73000E000BF7B6802221A8025
:104DD000F7E1082387F8A730F3E1BB68BB66BB683F
:104DE0007B66B7F9B830032B5EDDFB8941F658329C
:104DF000934244D041F6583293424DDC40F658225B
:104E0000934230D040F65822934245DC982B1CD078
:104E1000982B41DC182B02D0582B08D03CE0D7F857
:104E2000A000FEF7A9F90246BB6E1A6038E0D7F879
:104E3000A000FEF7F5F903461A4613465B0013443B
:104E40005B001A467B6E1A602AE0D7F8A000FEF7D6
:104E5000FCF903461A4613465B0013445B001A46EE
:104E60007B6E1A601CE0D7F8A000FEF75DF9F0EE4B
:104E7000407AC7ED087A3A6ABB6E1A6010E0804B40
:104E80001B6818460BF0F4FAF0EE407AC7ED077A8B
:104E9000FA69BB6E1A6003E0052387F8A73000BFEC
:104EA0007B6804221A808CE1082387F8A73088E108
:104EB000BB68FB66FB89A02B02D0E02B0FD01FE064
:104EC00097F8A6306F4A52F82300B7F9B8307A68DD
:104ED000F96E00F07FF9034687F8A73017E097F8DE
:104EE000A630694A52F8233003F12400B7F9B830EC
:104EF0007A68F96E00F06EF9034687F8A73006E08D
:104F0000052387F8A7307B6800221A8000BF58E18C
:104F1000BB68C7F89830BB68C7F89430D7F89430AE
:104F20000133C7F89430D7F894300133C7F8943080
:104F3000FB89B3F56A7F00F01881B3F56A7F00F34F
:104F40003081B3F55A7F00F0EA80B3F55A7F00F361
:104F50002881B3F5F47F00F0C280B3F5F47F00F34D
:104F60002081B3F5D47F00F09780B3F5D47F00F3B0
:104F70001881B3F5947F64D0B3F5947F00F3118169
:104F8000E82B41D0E82B00F30C81682B1FD0A82B15
:104F900040F00781D7F8983010221A80D7F898305F
:104FA0001B880233B7F8B820934203D9082387F847
:104FB000A730FAE097F8A630344A52F823307B67DE
:104FC0001022796FD7F894000DF00EFEEDE0D7F8BF
:104FD00098303C221A80D7F898301B880233B7F8F3
:104FE000B820934203D9082387F8A730DDE097F86B
:104FF000A630254A52F823303B673C22396FD7F858
:1050000094000DF0F1FDD0E0D7F898300E221A8010
:10501000D7F898301B880233B7F8B820934203D9E9
:10502000082387F8A730C0E097F8A630184A52F84E
:105030002330BB670E22B96FD7F894000DF0D4FD72
:10504000B3E0D7F898300C221A80D7F898301B8834
:105050000233B7F8B820934203D9082387F8A73062
:10506000A3E0D7F894300B4A146850689168D2686E
:105070001C6058609960DA6097E000BF94000020DF
:10508000F4030020D0040020D8040020DC04002019
:10509000D4040020C0040020D7F89430C7F8803032
:1050A000D7F894300433FB67D7F8A000FEF785F8F3
:1050B00003461A4613465B0013445B001A46D7F8B2
:1050C00080301A60D7F8A000FEF791F803461A4620
:1050D000FB6F1A80D7F8983006221A8065E0D7F85F
:1050E0009430C7F88830D7F894300233C7F884304A
:1050F000D7F8983004221A80D7F8A000FEF76AF893
:1051000003461A46D7F888301A80D7F8A000FEF771
:105110006EF803461A46D7F884301A8045E0D7F86F
:105120009430C7F89030D7F894300233C7F88C30F9
:10513000D7F8983004221A80D7F8A000FEF7DAF8E2
:1051400003467B65B7F954309AB2D7F890301A808D
:10515000D7F8A000FEF7CEF80346BB65B7F95A3082
:105160009AB2D7F88C301A801FE0D7F8983008220E
:105170001A8017480AF05FFEF0EE407AC7ED067A13
:1051800013480AF049FEF0EE407AC7ED057ABA6995
:10519000D7F894301A60D7F8943004337A691A60DB
:1051A00003E0052387F8A73000BFD7F898301B88A5
:1051B00002339AB27B681A8003E0072387F8A7308E
:1051C00000BF97F8A7301846AC37BD4690BD00BF6A
:1051D000C000002080B489B000AFF860B9607A6088
:1051E0007B800023FB77FB68BB61BB687B617B68CE
:1051F00001221A8010E0BB6993F900207B691A70C4
:105200007B6901337B61BB690133BB617B681B88B0
:1052100001339AB27B681A80BB6993F90030002B86
:1052200004D07B681A887B889A42E4D3BB6993F9DF
:105230000030002B02D00623FB7702E07B690022BE
:105240001A70FB7F18462437BD465DF8047B704713
:1052500080B485B000AF0346FB80FB88DBB203F06F
:105260003803BB73BB7B182B0CD0182B0DDC082B21
:1052700002D0102B03D008E00123FB7308E00223C7
:10528000FB7305E00423FB7302E00023FB7300BF04
:10529000FB7B18461437BD465DF8047B7047000061
:1052A00080B487B000AF03463960FB800023FB75F4
:1052B000694B3B61FB8823F00703FB81FB88DBB272
:1052C00003F038037B737B7B102B40F0B880FB89A5
:1052D000B3F5316F00F0A480B3F5316F00F3A8800F
:1052E000B3F52D6F00F0A080B3F52D6F00F3A08013
:1052F000B3F5296F00F08D80B3F5296F00F3988026
:10530000B3F5256F7ED0B3F5256F00F39180B3F52B
:10531000216F70D0B3F5216F00F38A80B3F51D6F54
:1053200062D0B3F51D6F00F38380B3F5196F54D0CD
:10533000B3F5196F7CDCB3F5156F47D0B3F5156F76
:1053400076DCB3F5116F3AD0B3F5116F70DCB3F5BD
:105350000D6F2DD0B3F50D6F6ADCB3F5096F21D059
:10536000B3F5096F64DCB3F5056F15D0B3F5056FC0
:105370005EDCB3F5FA6F03D0B3F5016F06D057E0EA
:105380003B695B681A463B681A6057E03B695B689B
:105390009A1C3B681A6051E03B695B681A1D3B68C8
:1053A0001A604BE03B695B689A1D3B681A6045E0F8
:1053B0003B695B6803F10C023B681A603EE03B69A5
:1053C0005B6803F10E023B681A6037E03B695B687B
:1053D00003F110023B681A6030E03B695B6803F13F
:1053E00012023B681A6029E03B695B6803F1160210
:1053F0003B681A6022E03B695B6803F118023B6876
:105400001A601BE03B695B6803F11A023B681A6093
:1054100014E03B695B6803F11C023B681A600DE015
:105420003B680E4A1A6009E03B680D4A1A6005E0C5
:105430003B680C4A1A600523FB7500BF05E03B681A
:10544000084A1A600523FB7500BFFB7D18461C3710
:10545000BD465DF8047B7047840A00204C020020A2
:1054600044020020DC1C002090B58FB002AF7860B1
:105470000B467B80002387F82F307B685B68BB621C
:105480007B689B687B627B689B897B840023BB82F3
:105490004B4A07F10C0392E8030083E80300002362
:1054A00087F821307B680022DA8178E097F8213094
:1054B000013387F82130BB6AFB617B8C023B9BB2D6
:1054C0007B84BB6A0233BB62FB691B8823F0070342
:1054D0007B83FB691B88DBB203F038037B76FB69B7
:1054E0001B88DBB203F007033B763B7E012B05D91B
:1054F000012387F82F3000237B8450E03B7E9B0004
:1055000030333B4453F8244C07F11402797E788BF6
:10551000B7F9223000931346BA6AA0470346FB75D9
:105520007A8CBB8AD31A9BB27B84BB8A1A46BB6A2D
:105530001344BB6297F82130012B07D1B7F9223011
:10554000002B03D1FB7D87F82F3028E07B88002BD0
:1055500020D07B6AFA7D1A707B6A01337B627B689C
:10556000DB8901339AB27B68DA817B88013B7B80DF
:10557000FB7D002B02D197F82F3000E0012387F844
:105580002F30FB7D072B02D0FB7D0A2B07D1002398
:105590007B8404E000237B84082387F82F30B7F94D
:1055A0002230002B82DC97F82F30002B02D17B6851
:1055B0000022DA8197F82F3018463437BD4690BD67
:1055C000802C010890B58FB002AF78600B467B80CD
:1055D000012387F82F307B685B68BB627B689B6820
:1055E0007B620023FB827B689B897B847B883B8476
:1055F000304A07F10C0392E8030083E803007B685C
:105600000022DA814CE0BB6AFB617B8C023B7B842D
:10561000BB6A0233BB62FB691B8823F007037B83F1
:10562000FB691B88DBB203F038037B76FB691B88C0
:10563000DBB203F007033B763B7E012B05D9012348
:1056400087F82F3000237B842AE03B7E9B00303399
:105650003B4453F8244C07F11602797E788BB7F956
:105660002030009313467A6AA047034687F82F300C
:1056700097F82F30002B11D1FB8A1A467B6A13440E
:105680007B627B68DA89FB8A13449AB27B68DA8191
:105690003A8CFB8AD31A9BB23B8401E000237B84C3
:1056A0007B8C002BAFD197F82F3018463437BD468E
:1056B00090BD00BF882C0108B0B58AB002AF7860F9
:1056C00000233B777B685B68BB61BB691B8823F069
:1056D0000703FB83FB8B03F47F43B3F5807F06D185
:1056E000FB8BDBB2DB083B774FF48073FB83BB693A
:1056F0001B88DBB2013BDBB203F00703FB75FA7DCD
:1057000013465B0013441B01C94A13443B617B6889
:105710009B89023B9AB27B689A817B685B689A1C82
:105720007B685A607B681B689B89013B9BB2FB814D
:105730007B680022DA81FB8B682B00F3DB80002B77
:10574000C0F27A81682B00F2778101A252F823F02F
:10575000FD580008395A0008395A0008395A00081B
:10576000395A0008395A0008395A0008395A0008CD
:1057700011590008395A0008395A0008395A0008E6
:10578000395A0008395A0008395A0008395A0008AD
:1057900021590008395A0008395A0008395A0008B6
:1057A000395A0008395A0008395A0008395A00088D
:1057B00031590008395A0008395A0008395A000886
:1057C000395A0008395A0008395A0008395A00086D
:1057D0004D590008395A0008395A0008395A00084A
:1057E000395A0008395A0008395A0008395A00084D
:1057F00059590008395A0008395A0008395A00081E
:10580000395A0008395A0008395A0008395A00082C
:1058100071590008395A0008395A0008395A0008E5
:10582000395A0008395A0008395A0008395A00080C
:105830009B590008395A0008395A0008395A00089B
:10584000395A0008395A0008395A0008395A0008EC
:10585000A7590008395A0008395A0008395A00086F
:10586000395A0008395A0008395A0008395A0008CC
:10587000B5590008395A0008395A0008395A000841
:10588000395A0008395A0008395A0008395A0008AC
:10589000C1590008395A0008395A0008395A000815
:1058A000395A0008395A0008395A0008395A00088C
:1058B000C1590008395A0008395A0008395A0008F5
:1058C000395A0008395A0008395A0008395A00086C
:1058D000C1590008395A0008395A0008395A0008D5
:1058E000395A0008395A0008395A0008395A00084C
:1058F000C7590008B3F5807F77D09DE07B6804220C
:10590000DA817B689B6801221A7000237B7796E01E
:10591000FB8919467868FFF7A7FD03467B778EE081
:10592000FB8919467868FFF74DFE03467B7786E0D2
:105930003869FDF7E6FA034683F00103DBB2002B7A
:1059400001D0002300E001237B7778E03869FDF780
:1059500004FB00237B7772E03869FDF7D8FB034630
:10596000062B02D13869FDF74EFC00237B7766E0F9
:105970003869FDF7CCFB0346002B08D13869FDF7E9
:10598000C0FA034683F00103DBB27B7757E0386946
:10599000FDF7E3FA00237B7751E03869FDF70DFB53
:1059A00000237B774BE000213869FDF70EFD0023D3
:1059B0007B7744E03869FDF7F3FC00237B773EE01A
:1059C00002237B773BE07B6898897B6859687B681A
:1059D00003F10E047B689B68B7F90E200093234601
:1059E000FBF7F0FA03467B7729E03B7F012B1BD8BE
:1059F0003B7F104A52F82330002B15D03B7F0D4AD5
:105A000052F823407B6898897B6859687B6803F16A
:105A10000E057B689B68B7F90E2000932B46A047C4
:105A200003467B7700BF0AE00D237B7707E000BFCA
:105A3000840A0020381C002002237B7700BF7B688B
:105A40009B687A68D28913447A7F1A707B68DB89F5
:105A500001339AB27B68DA8100BF2037BD46B0BD02
:105A600080B485B000AF78601D4BDB681C4A43F002
:105A70008073D3601B4B1B68002B08D0194B00228E
:105A80005A60184B1B68174A43F001031360002348
:105A9000FB7315E0FB7B1B0108337A681344BB6082
:105AA000BB6800221A60BB6800225A60BB684FF0D6
:105AB000FF329A60BB680022DA60FB7B0133FB7324
:105AC000FB7B012BE6D97B6800221A707B680022E1
:105AD0005A6000BF1437BD465DF8047B704700BFB5
